:100000000C942A000C9434000C9434000C943400AA
:100010000C9434000C9434000C9434000C94340090
:100020000C9434000C9434000C9434000C94340080
:100030000C9434000C9434000C9434000C94340070
:100040000C9434000C9434000C9434000C94340060
:100050000C94340011241FBECFE5D8E0DEBFCDBF25
:100060000E9462020C9483020C940000DF93CF93F1
:10007000CDB7DEB72A970FB6F894DEBF0FBECDBF5F
:100080008B836C838B819AE0692F0E947702892F82
:100090008A838B819AE0692F0E94770289838C8101
:1000A000282F30E03A87298789859A85009739F08B
:1000B00029853A852130310509F476C0E4C089816B
:1000C000282F30E038872F838F81988582309105E3
:1000D00061F12F8138852330310534F48F81988583
:1000E0008130910569F0CFC02F81388523303105EB
:1000F00089F18F8198858430910509F440C0C3C08F
:10010000AAE3B0E0EAE3F0E08081482F8A81282F5B
:1001100030E081E090E0022E02C0880F991F0A941F
:10012000E2F7809584238C93AEC0A7E3B0E0E7E3C9
:10013000F0E08081482F8A81282F30E081E090E034
:10014000022E02C0880F991F0A94E2F7809584233B
:100150008C9399C0A4E3B0E0E4E3F0E08081482F01
:100160008A81282F30E081E090E0022E02C0880FC3
:10017000991F0A94E2F7809584238C9384C0A0E3AE
:10018000B0E0E0E3F0E08081482F8A81282F30E062
:1001900081E090E0022E02C0880F991F0A94E2F7D6
:1001A000809584238C936FC08981282F30E03E8313
:1001B0002D838D819E818230910551F12D813E816B
:1001C0002330310534F48D819E818130910561F0B9
:1001D0005AC02D813E812330310571F18D819E8180
:1001E00084309105E9F14FC0AAE3B0E0EAE3F0E022
:1001F0008081482F8A81282F30E081E090E0022E14
:1002000002C0880F991F0A94E2F7842B8C933BC09D
:10021000A7E3B0E0E7E3F0E08081482F8A81282F50
:1002200030E081E090E0022E02C0880F991F0A940E
:10023000E2F7842B8C9327C0A4E3B0E0E4E3F0E082
:100240008081482F8A81282F30E081E090E0022EC3
:1002500002C0880F991F0A94E2F7842B8C9313C075
:10026000A0E3B0E0E0E3F0E08081482F8A81282F0E
:1002700030E081E090E0022E02C0880F991F0A94BE
:10028000E2F7842B8C932A960FB6F894DEBF0FBE4C
:10029000CDBFCF91DF910895DF93CF93CDB7DEB778
:1002A0002A970FB6F894DEBF0FBECDBF8B836C8349
:1002B0008B819AE0692F0E947702892F8A838B8134
:1002C0009AE0692F0E94770289838C81282F30E081
:1002D0003A87298789859A85009739F029853A8553
:1002E0002130310509F476C0E4C08981282F30E03F
:1002F00038872F838F8198858230910561F12F8116
:1003000038852330310534F48F819885813091050B
:1003100069F0CFC02F8138852330310589F18F8175
:1003200098858430910509F440C0C3C0ABE3B0E0C8
:10033000EBE3F0E08081482F8A81282F30E081E0D4
:1003400090E0022E02C0880F991F0A94E2F7809570
:1003500084238C93AEC0A8E3B0E0E8E3F0E08081B2
:10036000482F8A81282F30E081E090E0022E02C0E1
:10037000880F991F0A94E2F7809584238C9399C083
:10038000A5E3B0E0E5E3F0E08081482F8A81282FE3
:1003900030E081E090E0022E02C0880F991F0A949D
:1003A000E2F7809584238C9384C0A1E3B0E0E1E37D
:1003B000F0E08081482F8A81282F30E081E090E0B2
:1003C000022E02C0880F991F0A94E2F780958423B9
:1003D0008C936FC08981282F30E03E832D838D81DF
:1003E0009E818230910551F12D813E81233031056E
:1003F00034F48D819E818130910561F05AC02D8148
:100400003E812330310571F18D819E8184309105CB
:10041000E9F14FC0ABE3B0E0EBE3F0E08081482FBF
:100420008A81282F30E081E090E0022E02C0880F00
:10043000991F0A94E2F7842B8C933BC0A8E3B0E0A9
:10044000E8E3F0E08081482F8A81282F30E081E0C6
:1004500090E0022E02C0880F991F0A94E2F7842BC5
:100460008C9327C0A5E3B0E0E5E3F0E08081482F5E
:100470008A81282F30E081E090E0022E02C0880FB0
:10048000991F0A94E2F7842B8C9313C0A1E3B0E088
:10049000E1E3F0E08081482F8A81282F30E081E07D
:1004A00090E0022E02C0880F991F0A94E2F7842B75
:1004B0008C932A960FB6F894DEBF0FBECDBFCF91B6
:1004C000DF910895DF93CF9300D0CDB7DEB780E200
:1004D00061E00E94360080E261E00E944C011A82D5
:1004E000198289819A8101969A838983FACF991B0F
:1004F00079E004C0991F961708F0961B881F7A951B
:0A050000C9F780950895F894FFCF25
:00000001FF
