:100000000C942A000C94DA070C9447000C944700D7
:100010000C9447000C9447000C9447000C94470044
:100020000C9447000C9447000C9447000C94470034
:100030000C9447000C9447000C9447000C94470024
:100040000C9447000C9447000C9447000C94470014
:100050000C94470011241FBECFE5D8E0DEBFCDBF12
:1000600011E0A0E6B0E0E0E9FBE402C005900D92EB
:10007000A038B107D9F711E0A0E8B1E001C01D92A6
:10008000A438B107E1F70E9406240C94C6250C940D
:100090000000EF92FF920F931F937B018C0120E0F1
:1000A00030E040E05FE40E94250488238CF0C80122
:1000B000B70120E030E040E05FE40E94C1010E940F
:1000C000E3049B01AC01205030404040504806C042
:1000D000C801B7010E94E3049B01AC01B901CA0148
:1000E0001F910F91FF90EF900895A0E0B0E0EBE733
:1000F000F0E00C948F25DC012B01FA019C919230E9
:1001000008F439C1EB018881823008F433C194309E
:1001100069F4843009F02FC111969C91119789815F
:10012000981709F428C1A7E6B0E025C1843009F486
:1001300021C18230A9F4923009F01DC19A01AD01AC
:1001400088E0EA010990AE01E90109929E0181501F
:10015000C1F7E201898111969C918923818308C1AD
:10016000923009F407C112962D903C901397EB0141
:100170008A819B811496AD90BD90CD90DC901797AD
:10018000EC80FD800E811F819101281B390BB90184
:1001900037FF04C066277727621B730B6032710537
:1001A0000CF061C0121613066CF537014801062EDB
:1001B00004C096948794779467940A94D2F721E0C8
:1001C00030E040E050E004C0220F331F441F551FB1
:1001D0006A95D2F721503040404050402E213F21B7
:1001E00040235123211531054105510521F021E01E
:1001F00030E040E050E079018A01E628F72808293C
:1002000019293CC0232BD1F1260E371E350146019A
:10021000062E04C096948794779467940A94D2F734
:1002200021E030E040E050E004C0220F331F441FC3
:10023000551F6A95D2F721503040404050402A2146
:100240003B214C215D21211531054105510521F04E
:1002500021E030E040E050E059016A01A628B728CB
:10026000C828D9280BC0821593052CF01C01AA249C
:10027000BB24650103C0EE24FF24870111969C91E5
:10028000D20111968C91981709F445C0992339F041
:10029000A80197012A193B094C095D0906C0A6016E
:1002A00095012E193F09400B510B57FD08C01182D3
:1002B0003382228224833583468357831DC081E0A5
:1002C00081833382228288279927DC01821B930B4A
:1002D000A40BB50B84839583A683B7830DC0220F2F
:1002E000331F441F551F24833583468357838281E0
:1002F000938101979383828324813581468157813D
:10030000DA01C9010197A109B1098F5F9F4FAF4F72
:10031000BF4328F30BC0918333822282EA0CFB1C7B
:100320000C1D1D1DE482F5820683178383E0808304
:10033000248135814681578157FF1AC0C901AA27F8
:1003400097FDA095BA2F81709070A070B0705695EF
:10035000479537952795822B932BA42BB52B848318
:100360009583A683B7838281938101969383828349
:10037000DF0101C0D201CD01CDB7DEB7E2E10C94BF
:10038000AB25A0E2B0E0E7ECF1E00C949B2569839B
:100390007A838B839C832D833E834F835887E9E048
:1003A000EE2EF12CEC0EFD1ECE010196B7010E943F
:1003B000D4068E010F5E1F4FCE010596B8010E9434
:1003C000D4068A8991E089278A8BC701B801AE01DA
:1003D000475E5F4F0E9475000E94FF05A096E6E011
:1003E0000C94B725A0E2B0E0E8EFF1E00C949B2577
:1003F00069837A838B839C832D833E834F835887C5
:10040000F9E0EF2EF12CEC0EFD1ECE010196B701A6
:100410000E94D4068E010F5E1F4FCE010596B801D3
:100420000E94D406C701B801AE01475E5F4F0E942B
:1004300075000E94FF05A096E6E00C94B725A0E2A7
:10044000B0E0E5E2F2E00C948F2569837A838B8338
:100450009C832D833E834F835887CE010196BE0136
:10046000675F7F4F0E94D406CE010596BE016F5E86
:100470007F4F0E94D4069985923088F08989823016
:10048000C8F0943019F4823051F404C0843029F457
:10049000923081F487E690E0C6C0923049F420E0C3
:1004A0009A858A89981321E02A87CE010996BBC0D4
:1004B000823049F420E09A858A89981321E02A8BBA
:1004C000CE014196B0C02D843E844F8458886D88FB
:1004D0007E888F88988CEE24FF248701AA24BB2471
:1004E000650140E050E060E070E0E0E0F0E0C10174
:1004F00081709070892BE9F0E60CF71C081D191D1E
:100500009A01AB012A0D3B1D4C1D5D1D80E090E062
:10051000A0E0B0E0E614F7040805190520F481E036
:1005200090E0A0E0B0E0BA01A901480F591F6A1F8E
:100530007B1FAA0CBB1CCC1CDD1C97FE08C081E0F5
:1005400090E0A0E0B0E0A82AB92ACA2ADB2A3196B6
:10055000E032F10549F0660C771C881C991C569412
:10056000479437942794C3CFFA85EA892B893C892D
:100570008B859C85280F391F2E5F3F4F17C0CA01FE
:1005800081709070892B61F016950795F794E79428
:1005900080E090E0A0E0B0E8E82AF92A0A2B1B2BC3
:1005A00076956795579547952F5F3F4F77FDE7CF36
:1005B0000CC0440F551F661F771F17FD4160EE0CDE
:1005C000FF1C001F111F21503040403090E05907A0
:1005D00090E0690790E4790760F32B8F3C8FDB0193
:1005E000CA018F779070A070B07080349105A1051A
:1005F000B10561F447FD0AC0E114F10401051105DC
:1006000029F0405C5F4F6F4F7F4F40781A8EFE1786
:1006100011F081E08A8F4D8F5E8F6F8F78A383E01A
:10062000898FCE0149960E94FF05A096E2E10C94C5
:10063000AB25A8E1B0E0EFE1F3E00C9497256983E6
:100640007A838B839C832D833E834F835887B9E0C5
:10065000EB2EF12CEC0EFD1ECE010196B7010E948F
:10066000D4068E010F5E1F4FCE010596B8010E9481
:10067000D4062985223008F47EC03989323010F43E
:10068000B8017CC08A859A8989278A87243011F02D
:10069000223031F4231709F06EC067E670E06EC0B7
:1006A000343039F41D861E861F86188A1C861B86E8
:1006B00004C0323021F484E08987B7015FC02B8504
:1006C0003C858B899C89281B390B3C872B87ED84C3
:1006D000FE840F851889AD88BE88CF88D88CEA142F
:1006E000FB040C051D0540F4EE0CFF1C001F111F40
:1006F000215030403C872B8720E030E040E050E044
:1007000080E090E0A0E0B0E460E070E0EA14FB0478
:100710000C051D0540F0282B392B4A2B5B2BEA18C2
:10072000FB080C091D09B695A79597958795EE0CC2
:10073000FF1C001F111F6F5F7F4F6F31710531F775
:10074000DA01C9018F779070A070B0708034910584
:10075000A105B10561F427FD0AC0E114F10401050A
:10076000110529F0205C3F4F4F4F5F4F20782D87B8
:100770003E874F87588BBE01675F7F4FCB010E943A
:10078000FF056896EAE00C94B325A8E1B0E0EBEC35
:10079000F3E00C949B2569837A838B839C832D8360
:1007A0003E834F83588789E0E82EF12CEC0EFD1E26
:1007B000CE010196B7010E94D4068E010F5E1F4F35
:1007C000CE010596B8010E94D4068985823040F09A
:1007D0008989823028F0C701B8010E944C0701C006
:1007E00081E06896E6E00C94B725A8E1B0E0EBEF75
:1007F000F3E00C949B2569837A838B839C832D8300
:100800003E834F83588789E0E82EF12CEC0EFD1EC5
:10081000CE010196B7010E94D4068E010F5E1F4FD4
:10082000CE010596B8010E94D4068985823040F039
:100830008989823028F0C701B8010E944C0701C0A5
:100840008FEF6896E6E00C94B725A8E1B0E0EBE204
:10085000F4E00C949B2569837A838B839C832D839E
:100860003E834F83588789E0E82EF12CEC0EFD1E65
:10087000CE010196B7010E94D4068E010F5E1F4F74
:10088000CE010596B8010E94D4068985823040F0D9
:100890008989823028F0C701B8010E944C0701C045
:1008A0008FEF6896E6E00C94B725A8E1B0E0EBE5A1
:1008B000F4E00C949B2569837A838B839C832D833E
:1008C0003E834F83588789E0E82EF12CEC0EFD1E05
:1008D000CE010196B7010E94D4068E010F5E1F4F14
:1008E000CE010596B8010E94D4068985823040F079
:1008F0008989823028F0C701B8010E944C0701C0E5
:1009000081E06896E6E00C94B725A8E0B0E0EBE85B
:10091000F4E00C9498259B01AC0183E08983DA0113
:10092000C9018827B7FD83959927AA27BB27B82E29
:10093000211531054105510519F482E089833AC03A
:100940008823A9F0203080E0380780E0480780E85D
:10095000580729F460E070E080E09FEC30C0EE249E
:10096000FF248701E21AF30A040B150B02C0790178
:100970008A018EE1C82ED12CDC82CB82ED82FE82F0
:100980000F831887C801B7010E94B0050197181698
:10099000190684F4082E04C0EE0CFF1C001F111F62
:1009A0000A94D2F7ED82FE820F831887C81AD90AFB
:1009B000DC82CB82BA82CE0101960E94FF05289686
:1009C000E9E00C94B425ACE0B0E0E9EEF4E00C947E
:1009D0009F2569837A838B839C83CE010196BE0118
:1009E0006B5F7F4F0E94D4068D81823061F182302F
:1009F00050F1843021F48E81882351F12EC02F8153
:100A0000388537FD20C06E812F3131051CF06623FB
:100A1000F9F023C08EE190E0821B930B29853A8583
:100A20004B855C8504C056954795379527958A95E3
:100A3000D2F76623B1F050954095309521953F4F00
:100A40004F4F5F4F0EC020E030E040E050E009C063
:100A50002FEF3FEF4FEF5FE704C020E030E040E0D2
:100A600050E8B901CA012C96E2E00C94BB25A8E03D
:100A7000B0E0EDE3F5E00C9497257B018C01611566
:100A800071058105910519F482E0898360C083E0D6
:100A900089838EE1C82ED12CDC82CB82ED82FE824E
:100AA0000F831887C801B7010E94B005FC01319778
:100AB000F7FF3BC0222733272E1B3F0B570168014E
:100AC000022E04C0D694C794B794A7940A94D2F780
:100AD00040E050E060E070E081E090E0A0E0B0E055
:100AE00004C0880F991FAA1FBB1F2A95D2F7019730
:100AF000A109B1098E219F21A023B1230097A1054F
:100B0000B10521F041E050E060E070E04A295B2946
:100B10006C297D294D835E836F8378878EE190E019
:100B20008E1B9F0B9C838B8312C0309781F00E2EFF
:100B300004C0EE0CFF1C001F111F0A94D2F7ED82B7
:100B4000FE820F831887CE1ADF0ADC82CB821A82DC
:100B5000CE0101960E94FF052896EAE00C94B32589
:100B6000EF92FF920F931F937B018C0180E0E816B8
:100B700080E0F80681E0080780E0180788F48FEF2E
:100B8000E816F1040105110531F028F088E090E045
:100B9000A0E0B0E017C080E090E0A0E0B0E012C0BC
:100BA00080E0E81680E0F80680E0080781E018079A
:100BB00028F088E190E0A0E0B0E004C080E190E09F
:100BC000A0E0B0E020E230E040E050E0281B390B2C
:100BD0004A0B5B0B04C016950795F794E7948A952A
:100BE000D2F7F701E159FF4F8081281B31094109F4
:100BF0005109C9011F910F91FF90EF900895DF9265
:100C0000EF92FF920F931F93FC01E480F580068121
:100C10001781D1808081823048F480E090E0A0E1AB
:100C2000B0E0E82AF92A0A2B1B2BA5C0843009F46E
:100C30009FC0823021F4EE24FF24870105C0E11417
:100C4000F1040105110519F4E0E0F0E096C06281BD
:100C500073819FEF623879070CF05BC022E83FEFA9
:100C6000261B370B2A3131052CF020E030E040E024
:100C700050E02AC0B801A701022E04C076956795FE
:100C8000579547950A94D2F781E090E0A0E0B0E054
:100C900004C0880F991FAA1FBB1F2A95D2F701977E
:100CA000A109B1098E219F21A023B1230097A1059D
:100CB000B10521F081E090E0A0E0B0E09A01AB0145
:100CC000282B392B4A2B5B2BDA01C9018F779070C7
:100CD000A070B07080349105A105B10539F427FFEB
:100CE00009C0205C3F4F4F4F5F4F04C0215C3F4F16
:100CF0004F4F5F4FE0E0F0E02030A0E03A07A0E087
:100D00004A07A0E45A0710F0E1E0F0E079018A0117
:100D100027C06038710564F5FB01E158FF4FD80129
:100D2000C7018F779070A070B07080349105A105D5
:100D3000B10539F4E7FE0DC080E490E0A0E0B0E03A
:100D400004C08FE390E0A0E0B0E0E80EF91E0A1FB7
:100D50001B1F17FF05C016950795F794E79431966A
:100D600087E016950795F794E7948A95D1F705C023
:100D7000EE24FF248701EFEFF0E06E2F67956627E2
:100D80006795902F9F77D794DD24D7948E2F8695E3
:100D9000492F462B582F5D29B701CA011F910F918A
:100DA000FF90EF90DF900895FC01DB0140815181BD
:100DB0002281622F6F7770E0221F2227221F9381EA
:100DC000892F880F822B282F30E0991F9927991F90
:100DD00011969C93119721153105A9F541155105DF
:100DE0006105710511F482E037C082E89FEF139628
:100DF0009C938E9312979A01AB0167E0220F331FE9
:100E0000441F551F6A95D1F783E08C930DC0220FC4
:100E1000331F441F551F12968D919C911397019774
:100E200013969C938E931297203080E0380780E0D1
:100E3000480780E4580758F314962D933D934D933B
:100E40005C93179708952F3F310579F441155105AB
:100E50006105710519F484E08C93089564FF03C063
:100E600081E08C9312C01C9210C02F573040139613
:100E70003C932E93129783E08C9387E0440F551F89
:100E8000661F771F8A95D1F7706414964D935D9312
:100E90006D937C93179708951F93DC01FB019C9140
:100EA000923008F447C08081823008F443C0943007
:100EB00051F411961C91843099F58181682F70E06E
:100EC000611B71093FC0843021F0923031F48230CF
:100ED000B9F18181882389F12DC011961C91119758
:100EE0008230F1F081811817D9F412962D913C913E
:100EF0001397828193818217930794F028173907FB
:100F0000BCF014968D919D910D90BC91A02D2481E3
:100F1000358146815781281739074A075B0718F43E
:100F2000112341F00AC082179307A407B50740F4C4
:100F3000112319F061E070E005C06FEF7FEF02C090
:100F400060E070E0CB011F910895DF93CF93CDB7A0
:100F5000DEB7A5E5B0E0E5E5F0E080818E7F8C931B
:100F6000A5E5B0E0E5E5F0E0808182608C93ABE53B
:100F7000B0E0EBE5F0E0808180648C93AFE5B0E019
:100F8000EFE5F0E0808180688C93CF91DF91089548
:100F9000DF93CF9300D0CDB7DEB79A838983898161
:100FA0009A8190938301809382010F900F90CF914B
:100FB000DF9108951F920F920FB60F9211242F9375
:100FC0003F934F935F936F937F938F939F93AF93D1
:100FD000BF93EF93FF93DF93CF93CDB7DEB7E0914D
:100FE0008201F09183010995CF91DF91FF91EF91FB
:100FF000BF91AF919F918F917F916F915F914F9131
:101000003F912F910F900FBE0F901F901895DF9377
:10101000CF93CDB7DEB72A970FB6F894DEBF0FBED9
:10102000CDBF8B836C838B819AE0692F0E9446250C
:10103000892F8A838B819AE0692F0E9446258983B4
:101040008C81282F30E03A87298789859A850097F7
:1010500039F029853A852130310509F476C0E4C09C
:101060008981282F30E038872F838F8198858230BF
:10107000910561F12F8138852330310534F48F815A
:1010800098858130910569F0CFC02F813885233054
:10109000310589F18F8198858430910509F440C02C
:1010A000C3C0AAE3B0E0EAE3F0E08081482F8A8180
:1010B000282F30E081E090E0022E02C0880F991FB7
:1010C0000A94E2F7809584238C93AEC0A7E3B0E046
:1010D000E7E3F0E08081482F8A81282F30E081E02B
:1010E00090E0022E02C0880F991F0A94E2F78095C3
:1010F00084238C9399C0A4E3B0E0E4E3F0E0808122
:10110000482F8A81282F30E081E090E0022E02C033
:10111000880F991F0A94E2F7809584238C9384C0EA
:10112000A0E3B0E0E0E3F0E08081482F8A81282F3F
:1011300030E081E090E0022E02C0880F991F0A94EF
:10114000E2F7809584238C936FC08981282F30E04B
:101150003E832D838D819E818230910551F12D81B9
:101160003E812330310534F48D819E81813091059B
:1011700061F05AC02D813E812330310571F18D819E
:101180009E8184309105E9F14FC0AAE3B0E0EAE323
:10119000F0E08081482F8A81282F30E081E090E0C4
:1011A000022E02C0880F991F0A94E2F7842B8C93B9
:1011B0003BC0A7E3B0E0E7E3F0E08081482F8A81FD
:1011C000282F30E081E090E0022E02C0880F991FA6
:1011D0000A94E2F7842B8C9327C0A4E3B0E0E4E305
:1011E000F0E08081482F8A81282F30E081E090E074
:1011F000022E02C0880F991F0A94E2F7842B8C9369
:1012000013C0A0E3B0E0E0E3F0E08081482F8A81E2
:10121000282F30E081E090E0022E02C0880F991F55
:101220000A94E2F7842B8C932A960FB6F894DEBFCB
:101230000FBECDBFCF91DF910895DF93CF93CDB790
:10124000DEB72A970FB6F894DEBF0FBECDBF8B83F3
:101250006C838B819AE0692F0E944625892F8A83AF
:101260008B819AE0692F0E94462589838C81282FE3
:1012700030E03A87298789859A85009739F0298552
:101280003A852130310509F476C0E4C08981282FE0
:1012900030E038872F838F8198858230910561F106
:1012A0002F8138852330310534F48F819885813042
:1012B000910569F0CFC02F8138852330310589F140
:1012C0008F8198858430910509F440C0C3C0ABE399
:1012D000B0E0EBE3F0E08081482F8A81282F30E0F6
:1012E00081E090E0022E02C0880F991F0A94E2F775
:1012F000809584238C93AEC0A8E3B0E0E8E3F0E0EF
:101300008081482F8A81282F30E081E090E0022EF2
:1013100002C0880F991F0A94E2F7809584238C936A
:1013200099C0A5E3B0E0E5E3F0E08081482F8A8131
:10133000282F30E081E090E0022E02C0880F991F34
:101340000A94E2F7809584238C9384C0A1E3B0E0F3
:10135000E1E3F0E08081482F8A81282F30E081E0AE
:1013600090E0022E02C0880F991F0A94E2F7809540
:1013700084238C936FC08981282F30E03E832D8396
:101380008D819E818230910551F12D813E812330E6
:10139000310534F48D819E818130910561F05AC010
:1013A0002D813E812330310571F18D819E81843004
:1013B0009105E9F14FC0ABE3B0E0EBE3F0E08081F1
:1013C000482F8A81282F30E081E090E0022E02C071
:1013D000880F991F0A94E2F7842B8C933BC0A8E3F3
:1013E000B0E0E8E3F0E08081482F8A81282F30E0E8
:1013F00081E090E0022E02C0880F991F0A94E2F764
:10140000842B8C9327C0A5E3B0E0E5E3F0E0808176
:10141000482F8A81282F30E081E090E0022E02C020
:10142000880F991F0A94E2F7842B8C9313C0A1E3D1
:10143000B0E0E1E3F0E08081482F8A81282F30E09E
:1014400081E090E0022E02C0880F991F0A94E2F713
:10145000842B8C932A960FB6F894DEBF0FBECDBFB7
:10146000CF91DF910895DF93CF9300D000D00F92FA
:10147000CDB7DEB78B838B819AE0692F0E9446251A
:10148000892F8A838B819AE0692F0E944625898360
:101490008981282F30E03D832C838C819D8182308F
:1014A000910551F12C813D812330310534F48C813B
:1014B0009D818130910561F05AC02C813D8123309E
:1014C000310571F18C819D8184309105E9F14FC026
:1014D000ABE3B0E0EBE3F0E08081482F8A81282F76
:1014E00030E081E090E0022E02C0880F991F0A943C
:1014F000E2F784278C933BC0A8E3B0E0E8E3F0E098
:101500008081482F8A81282F30E081E090E0022EF0
:1015100002C0880F991F0A94E2F784278C9327C092
:10152000A5E3B0E0E5E3F0E08081482F8A81282F31
:1015300030E081E090E0022E02C0880F991F0A94EB
:10154000E2F784278C9313C0A1E3B0E0E1E3F0E07D
:101550008081482F8A81282F30E081E090E0022EA0
:1015600002C0880F991F0A94E2F784278C930F908A
:101570000F900F900F900F90CF91DF910895DF9310
:10158000CF9300D000D000D0CDB7DEB78C838C8154
:101590009AE0692F0E944625892F8B838C819AE0DF
:1015A000692F0E9446258A8319828A81282F30E07C
:1015B0003E832D834D815E814230510541F18D8105
:1015C0009E818330910534F42D813E812130310597
:1015D00061F052C04D815E814330510551F18D81E2
:1015E0009E8184309105B9F147C0E9E3F0E0808144
:1015F000282F30E08B81882F90E0A90102C05595FB
:1016000047958A95E2F7CA018170898335C0E6E380
:10161000F0E08081282F30E08B81882F90E0A901B5
:1016200002C0559547958A95E2F7CA018170898372
:1016300023C0E3E3F0E08081282F30E08B81882F06
:1016400090E0A90102C0559547958A95E2F7CA0135
:101650008170898311C0E0E3F0E08081282F30E0C1
:101660008B81882F90E0A90102C0559547958A95F6
:10167000E2F7CA0181708983898126960FB6F894B2
:10168000DEBF0FBECDBFCF91DF910895DF93CF9323
:10169000CDB7DEB7A7E2B0E0E7E2F0E0808180649A
:1016A0008C93A7E2B0E0E7E2F0E080818F778C9343
:1016B000A7E2B0E0E7E2F0E080818F7D8C93A7E2C3
:1016C000B0E0E7E2F0E080818F7E8C93A7E2B0E0AB
:1016D000E7E2F0E08081877F8C93A7E2B0E0E7E269
:1016E000F0E080818B7F8C93A7E2B0E0E7E2F0E04E
:1016F00080818D7F8C93A7E2B0E0E7E2F0E080810B
:101700008E7F8C93A6E2B0E0E6E2F0E08081846018
:101710008C93A6E2B0E0E6E2F0E0808182608C93F8
:10172000A6E2B0E0E6E2F0E0808181608C93A6E280
:10173000B0E0E6E2F0E0808180628C93A6E2B0E067
:10174000E6E2F0E0808180688C93CF91DF9108958C
:10175000DF93CF93CDB7DEB7A6E2B0E0E6E2F0E0EC
:10176000808180648C93E6E2F0E0808182958F70C6
:10177000882F90E0817090700097A9F3E4E2F0E088
:1017800080819181CF91DF910895DF93CF93CDB781
:10179000DEB78BE061E00E9407088CE061E00E9408
:1017A00007088DE061E00E9407088EE061E00E947A
:1017B00007088FE061E00E94070880E161E00E9475
:1017C000070881E161E00E94070884E161E00E946E
:1017D000070884E261E00E94070885E261E00E9458
:1017E0000708CF91DF910895DF93CF93CDB7DEB790
:1017F000A3970FB6F894DEBF0FBECDBF8F8F8F8D2E
:101800009AE0692F0E944625892F8E8F8F8D9AE04E
:10181000692F0E9446258D8F8E8D282F30E03BA3A7
:101820002AA38AA19BA18430910509F4BBC02AA1F7
:101830003BA125303105ECF48AA19BA181309105B3
:1018400009F459C02AA13BA1223031052CF48AA108
:101850009BA1009799F153C12AA13BA122303105E8
:1018600009F466C08AA19BA18330910509F47DC06B
:1018700046C12AA13BA12730310509F4EAC08AA15B
:101880009BA1883091056CF42AA13BA1253031053C
:1018900009F4A5C08AA19BA18630910509F4BCC0BA
:1018A0002EC12AA13BA12830310509F4EFC08AA13D
:1018B0009BA18930910509F406C121C18BE061E04B
:1018C0000E941D098CE061E00E941D098DE061E02D
:1018D0000E941D098EE061E00E941D098FE061E019
:1018E0000E941D0980E161E00E941D0981E160E024
:1018F0000E941D0904C18BE060E00E941D098CE07C
:1019000061E00E941D098DE061E00E941D098EE0EA
:1019100060E00E941D0980E160E00E941D098FE0E7
:1019200060E00E941D0981E160E00E941D09E7C09E
:101930008BE061E00E941D098CE061E00E941D09BE
:101940008DE060E00E941D098EE061E00E941D09AB
:101950008FE061E00E941D0980E160E00E941D09A6
:1019600081E161E00E941D09CAC08BE061E00E9434
:101970001D098CE061E00E941D098DE061E00E947C
:101980001D098EE061E00E941D098FE060E00E9469
:101990001D0980E160E00E941D0981E161E00E9473
:1019A0001D09ADC08BE060E00E941D098CE061E084
:1019B0000E941D098DE061E00E941D098EE060E03B
:1019C0000E941D098FE060E00E941D0980E161E036
:1019D0000E941D0981E161E00E941D0990C08BE019
:1019E00061E00E941D098CE060E00E941D098DE00D
:1019F00061E00E941D098EE061E00E941D098FE0F8
:101A000060E00E941D0980E161E00E941D0981E102
:101A100061E00E941D0973C08BE061E00E941D0916
:101A20008CE060E00E941D098DE061E00E941D09CC
:101A30008EE061E00E941D098FE061E00E941D09B7
:101A400080E161E00E941D0981E161E00E941D09C1
:101A500056C08BE061E00E941D098CE061E00E94AD
:101A60001D098DE061E00E941D098EE060E00E948A
:101A70001D098FE060E00E941D0980E160E00E9486
:101A80001D0981E160E00E941D0939C08BE061E021
:101A90000E941D098CE061E00E941D098DE061E05B
:101AA0000E941D098EE061E00E941D098FE061E047
:101AB0000E941D0980E161E00E941D0981E161E051
:101AC0000E941D091CC08BE061E00E941D098CE092
:101AD00061E00E941D098DE061E00E941D098EE019
:101AE00061E00E941D098FE060E00E941D0980E115
:101AF00061E00E941D0981E161E00E941D0984E20C
:101B000061E00E941D0985E260E00E941D0980E0FD
:101B100090E0A0E8BFE3898F9A8FAB8FBC8F698D6F
:101B20007A8D8B8D9C8D20E030E04AE755E40E9451
:101B30001F02DC01CB018D8B9E8BAF8BB88F6D8923
:101B40007E898F89988D20E030E040E85FE30E9435
:101B5000550488232CF481E090E09C8B8B8B3FC054
:101B60006D897E898F89988D20E03FEF4FE757E49C
:101B70000E94F50318164CF5698D7A8D8B8D9C8D1E
:101B800020E030E040E251E40E941F02DC01CB0182
:101B9000BC01CD010E944900DC01CB019C8B8B8BE9
:101BA0000FC080E991E09A8B898B89899A89019786
:101BB000F1F79A8B898B8B899C8901979C8B8B8BF6
:101BC0008B899C89009769F714C06D897E898F89FC
:101BD000988D0E944900DC01CB019C8B8B8B8B89FB
:101BE0009C89988B8F878F8598890197F1F7988BBF
:101BF0008F8784E260E00E941D098D8D282F30E0E0
:101C000039A328A388A199A18430910509F4BBC008
:101C100028A139A125303105ECF488A199A18130A2
:101C2000910509F459C028A139A1223031052CF4BD
:101C300088A199A1009799F153C128A139A1223017
:101C4000310509F466C088A199A18330910509F492
:101C50007DC046C128A139A12730310509F4EAC069
:101C600088A199A1883091056CF428A139A125306B
:101C7000310509F4A5C088A199A18630910509F420
:101C8000BCC02EC128A139A12830310509F4EFC00C
:101C900088A199A18930910509F406C121C18BE081
:101CA00061E00E941D098CE061E00E941D098DE049
:101CB00061E00E941D098EE061E00E941D098FE035
:101CC00061E00E941D0980E161E00E941D0981E13F
:101CD00060E00E941D0904C18BE060E00E941D09C4
:101CE0008CE061E00E941D098DE061E00E941D0909
:101CF0008EE060E00E941D0980E160E00E941D0905
:101D00008FE060E00E941D0981E160E00E941D09F2
:101D1000E7C08BE061E00E941D098CE061E00E9459
:101D20001D098DE060E00E941D098EE061E00E94C7
:101D30001D098FE061E00E941D0980E160E00E94C2
:101D40001D0981E161E00E941D09CAC08BE061E0CC
:101D50000E941D098CE061E00E941D098DE061E098
:101D60000E941D098EE061E00E941D098FE060E085
:101D70000E941D0980E160E00E941D0981E161E08F
:101D80000E941D09ADC08BE060E00E941D098CE03F
:101D900061E00E941D098DE061E00E941D098EE056
:101DA00060E00E941D098FE060E00E941D0980E153
:101DB00061E00E941D0981E161E00E941D0990C05F
:101DC0008BE061E00E941D098CE060E00E941D092B
:101DD0008DE061E00E941D098EE061E00E941D0916
:101DE0008FE060E00E941D0980E161E00E941D0912
:101DF00081E161E00E941D0973C08BE061E00E94F7
:101E00001D098CE060E00E941D098DE061E00E94E8
:101E10001D098EE061E00E941D098FE061E00E94D3
:101E20001D0980E161E00E941D0981E161E00E94DD
:101E30001D0956C08BE061E00E941D098CE061E045
:101E40000E941D098DE061E00E941D098EE060E0A6
:101E50000E941D098FE060E00E941D0980E160E0A2
:101E60000E941D0981E160E00E941D0939C08BE0DC
:101E700061E00E941D098CE061E00E941D098DE077
:101E800061E00E941D098EE061E00E941D098FE063
:101E900061E00E941D0980E161E00E941D0981E16D
:101EA00061E00E941D091CC08BE061E00E941D09D9
:101EB0008CE061E00E941D098DE061E00E941D0937
:101EC0008EE061E00E941D098FE060E00E941D0924
:101ED00080E161E00E941D0981E161E00E941D092D
:101EE00084E260E00E941D0985E261E00E941D0914
:101EF00080E090E0A0E8BFE38B879C87AD87BE873A
:101F00006B857C858D859E8520E030E04AE755E431
:101F10000E941F02DC01CB018F839887A987BA87B3
:101F20006F81788589859A8520E030E040E85FE31D
:101F30000E94550488232CF481E090E09E838D83D9
:101F40003FC06F81788589859A8520E03FEF4FE714
:101F500057E40E94F50318164CF56B857C858D853A
:101F60009E8520E030E040E251E40E941F02DC0147
:101F7000CB01BC01CD010E944900DC01CB019E8355
:101F80008D830FC080E991E09C838B838B819C8142
:101F90000197F1F79C838B838D819E8101979E83AE
:101FA0008D838D819E81009769F714C06F8178853C
:101FB00089859A850E944900DC01CB019E838D832F
:101FC0008D819E819A83898389819A810197F1F716
:101FD0009A83898385E260E00E941D09A3960FB66B
:101FE000F894DEBF0FBECDBFCF91DF910895DF9390
:101FF000CF93CDB7DEB760970FB6F894DEBF0FBEB4
:10200000CDBF888B1F861F8678C08F850E94F40BFA
:1020100080E090E0A0EAB0E48B879C87AD87BE8724
:102020006B857C858D859E8520E030E04AE755E410
:102030000E941F02DC01CB018F839887A987BA8792
:102040006F81788589859A8520E030E040E85FE3FC
:102050000E94550488232CF481E090E09E838D83B8
:102060003FC06F81788589859A8520E03FEF4FE7F3
:1020700057E40E94F50318164CF56B857C858D8519
:102080009E8520E030E040E251E40E941F02DC0126
:10209000CB01BC01CD010E944900DC01CB019E8334
:1020A0008D830FC080E991E09C838B838B819C8121
:1020B0000197F1F79C838B838D819E8101979E838D
:1020C0008D838D819E81009769F714C06F8178851B
:1020D00089859A850E944900DC01CB019E838D830E
:1020E0008D819E819A83898389819A810197F1F7F5
:1020F0009A8389838F858F5F8F879F8588898917CA
:1021000008F083CF60960FB6F894DEBF0FBECDBF48
:10211000CF91DF910895DF93CF93CDB7DEB760976E
:102120000FB6F894DEBF0FBECDBF888B88898F872E
:1021300088898F8778C08F850E94F40B80E090E0BB
:10214000A0EAB0E48B879C87AD87BE876B857C85D2
:102150008D859E8520E030E04AE755E40E941F020D
:10216000DC01CB018F839887A987BA876F81788537
:1021700089859A8520E030E040E85FE30E945504BD
:1021800088232CF481E090E09E838D833FC06F8193
:10219000788589859A8520E03FEF4FE757E40E94D4
:1021A000F50318164CF56B857C858D859E8520E0A2
:1021B00030E040E251E40E941F02DC01CB01BC018F
:1021C000CD010E944900DC01CB019E838D830FC0AD
:1021D00080E991E09C838B838B819C810197F1F74F
:1021E0009C838B838D819E8101979E838D838D81BE
:1021F0009E81009769F714C06F81788589859A85DB
:102200000E944900DC01CB019E838D838D819E81DC
:102210009A83898389819A810197F1F79A838983C7
:102220008F8581508F878F85282F332727FD309505
:102230008889882F90E0821793070CF47CCF6096F2
:102240000FB6F894DEBF0FBECDBFCF91DF910895DA
:10225000DF93CF9300D00F92CDB7DEB7898389810A
:10226000282F30E03B832A838A819B81813091052E
:1022700031F02A813B812230310531F009C082E200
:1022800061E00E94070804C081E261E00E94070843
:102290000F900F900F90CF91DF910895DF93CF9320
:1022A00000D00F92CDB7DEB789838981282F30E027
:1022B0003B832A838A819B818130910531F02A8179
:1022C0003B812230310531F009C082E261E00E9499
:1022D0001D0904C081E261E00E941D090F900F906A
:1022E0000F90CF91DF910895DF93CF9300D00F929D
:1022F000CDB7DEB789838981282F30E03B832A83DD
:102300008A819B818130910531F02A813B81223085
:10231000310531F009C082E260E00E941D0904C06D
:1023200081E260E00E941D090F900F900F90CF9105
:10233000DF910895DF93CF9300D00F92CDB7DEB732
:1023400089838981282F30E03B832A838A819B817E
:102350008130910531F02A813B812230310529F00D
:1023600007C082E20E94330A03C081E20E94330A5E
:102370000F900F900F90CF91DF910895DF93CF933F
:1023800000D00F92CDB7DEB789838981282F30E046
:102390003B832A838A819B8182309105D9F02A81EF
:1023A0003B812330310534F48A819B818130910552
:1023B00061F01EC02A813B812330310581F08A8182
:1023C0009B818430910581F013C08AE260E00E9415
:1023D00007080EC08BE260E00E94070809C08CE28B
:1023E00060E00E94070804C08DE260E00E940708D8
:1023F0000F900F900F90CF91DF910895DF93CF93BF
:10240000CDB7DEB7EC970FB6F894DEBF0FBECDBFE9
:102410008AAF81E089AF8AAD282F30E03CAF2BAF87
:102420008BAD9CAD8230910509F49FC02BAD3CADC6
:102430002330310534F48BAD9CAD8130910571F0C2
:1024400027C22BAD3CAD2330310509F415C18BAD4E
:102450009CAD8430910509F496C11AC28AE20E94AB
:10246000BF0A89AF89AD882309F012C280E090E0ED
:10247000A8ECB2E48DAB9EABAFABB8AF6DA97EA9B3
:102480008FA998AD20E030E04AE755E40E941F0292
:10249000DC01CB0189AB9AABABABBCAB69A97AA928
:1024A0008BA99CA920E030E040E85FE30E9455043E
:1024B00088232CF481E090E098AB8FA73FC069A9F6
:1024C0007AA98BA99CA920E03FEF4FE757E40E942F
:1024D000F50318164CF56DA97EA98FA998AD20E0DB
:1024E00030E040E251E40E941F02DC01CB01BC015C
:1024F000CD010E944900DC01CB0198AB8FA70FC032
:1025000080E991E09EA78DA78DA59EA50197F1F783
:102510009EA78DA78FA598A9019798AB8FA78FA588
:1025200098A9009769F714C069A97AA98BA99CA9F1
:102530000E944900DC01CB0198AB8FA78FA598A919
:102540009CA78BA78BA59CA50197F1F79CA78BA7B0
:102550008AE20E94BF0A882309F09AC18AE20E9497
:10256000BF0A8823D9F319AE93C18BE20E94BF0A38
:1025700089AF89AD882309F08BC180E090E0A8EC99
:10258000B2E48FA398A7A9A7BAA76FA178A589A538
:102590009AA520E030E04AE755E40E941F02DC01E2
:1025A000CB018BA39CA3ADA3BEA36BA17CA18DA1EA
:1025B0009EA120E030E040E85FE30E9455048823BC
:1025C0002CF481E090E09AA389A33FC06BA17CA189
:1025D0008DA19EA120E03FEF4FE757E40E94F50355
:1025E00018164CF56FA178A589A59AA520E030E0D2
:1025F00040E251E40E941F02DC01CB01BC01CD018D
:102600000E944900DC01CB019AA389A30FC080E995
:1026100091E098A38F8F8F8D98A10197F1F798A3E0
:102620008F8F89A19AA101979AA389A389A19AA1C1
:10263000009769F714C06BA17CA18DA19EA10E9497
:102640004900DC01CB019AA389A389A19AA19E8F9D
:102650008D8F8D8D9E8D0197F1F79E8F8D8F8BE2E3
:102660000E94BF0A882309F013C18BE20E94BF0AAF
:102670008823D9F319AE0CC18CE20E94BF0A89AF3E
:1026800089AD882309F004C180E090E0A8ECB2E4B1
:10269000898F9A8FAB8FBC8F698D7A8D8B8D9C8D36
:1026A00020E030E04AE755E40E941F02DC01CB0144
:1026B0008D8B9E8BAF8BB88F6D897E898F89988D1E
:1026C00020E030E040E85FE30E94550488232CF4CA
:1026D00081E090E09C8B8B8B3FC06D897E898F89D8
:1026E000988D20E03FEF4FE757E40E94F50318165E
:1026F0004CF5698D7A8D8B8D9C8D20E030E040E229
:1027000051E40E941F02DC01CB01BC01CD010E94FB
:102710004900DC01CB019C8B8B8B0FC080E991E0E1
:102720009A8B898B89899A890197F1F79A8B898B82
:102730008B899C8901979C8B8B8B8B899C890097BB
:1027400069F714C06D897E898F89988D0E94490030
:10275000DC01CB019C8B8B8B8B899C89988B8F8721
:102760008F8598890197F1F7988B8F878CE20E946B
:10277000BF0A882309F08CC08CE20E94BF0A88231C
:10278000D9F319AE85C08DE20E94BF0A89AF89AD29
:10279000882309F07DC080E090E0A8ECB2E48B874C
:1027A0009C87AD87BE876B857C858D859E8520E067
:1027B00030E04AE755E40E941F02DC01CB018F8321
:1027C0009887A987BA876F81788589859A8520E05F
:1027D00030E040E85FE30E94550488232CF481E058
:1027E00090E09E838D833FC06F81788589859A852F
:1027F00020E03FEF4FE757E40E94F50318164CF531
:102800006B857C858D859E8520E030E040E251E43B
:102810000E941F02DC01CB01BC01CD010E944900D6
:10282000DC01CB019E838D830FC080E991E09C8306
:102830008B838B819C810197F1F79C838B838D81A6
:102840009E8101979E838D838D819E81009769F77C
:1028500014C06F81788589859A850E944900DC01C2
:10286000CB019E838D838D819E819A83898389810B
:102870009A810197F1F79A8389838DE20E94BF0ABA
:10288000882331F48DE20E94BF0A8823D9F319AE60
:1028900089ADEC960FB6F894DEBF0FBECDBFCF91D9
:1028A000DF910895DF93CF9300D00F92CDB7DEB7BD
:1028B00089838981282F30E03B832A838A819B8109
:1028C0008230910579F02A813B812330310579F0FE
:1028D0008A819B818130910571F480E261E00E94E0
:1028E000070809C08FE161E00E94070804C08EE17B
:1028F00061E00E9407080F900F900F90CF91DF9139
:102900000895DF93CF9300D00F92CDB7DEB78983C0
:102910008981282F30E03B832A838A819B81823002
:10292000910579F02A813B812330310579F08A8144
:102930009B818130910571F480E261E00E941D0964
:1029400009C08FE161E00E941D0904C08EE161E0D1
:102950000E941D090F900F900F90CF91DF91089565
:10296000DF93CF9300D00F92CDB7DEB789838981F3
:10297000282F30E03B832A838A819B818230910516
:1029800079F02A813B812330310579F08A819B815E
:102990008130910571F480E260E00E941D0909C058
:1029A0008FE160E00E941D0904C08EE160E00E949A
:1029B0001D090F900F900F90CF91DF910895DF9335
:1029C000CF93CDB7DEB76D970FB6F894DEBF0FBECD
:1029D000CDBF8D8F80E090E0AAEFB3E4898F9A8F0E
:1029E000AB8FBC8F698D7A8D8B8D9C8D20E030E014
:1029F0004AE755E40E941F02DC01CB018D8B9E8BC0
:102A0000AF8BB88F6D897E898F89988D20E030E0FB
:102A100040E85FE30E94550488232CF481E090E0B5
:102A20009C8B8B8B3FC06D897E898F89988D20E030
:102A30003FEF4FE757E40E94F50318164CF5698DF8
:102A40007A8D8B8D9C8D20E030E040E251E40E9435
:102A50001F02DC01CB01BC01CD010E944900DC0159
:102A6000CB019C8B8B8B0FC080E991E09A8B898B7B
:102A700089899A890197F1F79A8B898B8B899C892F
:102A800001979C8B8B8B8B899C89009769F714C06D
:102A90006D897E898F89988D0E944900DC01CB0168
:102AA0009C8B8B8B8B899C89988B8F878F85988942
:102AB0000197F1F7988B8F878D8D0E94811480E0AC
:102AC00090E0AAEFB3E48B879C87AD87BE876B85C8
:102AD0007C858D859E8520E030E04AE755E40E94A4
:102AE0001F02DC01CB018F839887A987BA876F818A
:102AF000788589859A8520E030E040E85FE30E9490
:102B0000550488232CF481E090E09E838D833FC0A0
:102B10006F81788589859A8520E03FEF4FE757E4FC
:102B20000E94F50318164CF56B857C858D859E8576
:102B300020E030E040E251E40E941F02DC01CB01C2
:102B4000BC01CD010E944900DC01CB019E838D8335
:102B50000FC080E991E09C838B838B819C810197DE
:102B6000F1F79C838B838D819E8101979E838D835A
:102B70008D819E81009769F714C06F817885898562
:102B80009A850E944900DC01CB019E838D838D8153
:102B90009E819A83898389819A810197F1F79A832B
:102BA00089838D8D0E94B0146D960FB6F894DEBFA8
:102BB0000FBECDBFCF91DF910895DF93CF9300D0AB
:102BC0000F92CDB7DEB789838981282F30E03B8310
:102BD0002A838A819B818230910591F02A813B81F1
:102BE0002330310549F08A819B818130910559F468
:102BF00080E20E94330A07C08EE10E94330A03C0BC
:102C00008FE10E94330A0F900F900F90CF91DF91C8
:102C10000895DF93CF93CDB7DEB76C970FB6F894D6
:102C2000DEBF0FBECDBF8DE061E00E9407088EE0E1
:102C300061E00E9407088FE061E00E94070880E1E0
:102C400061E00E9407088CE061E00E9407088BE0C9
:102C500061E00E94070880E090E0AAE7B4E4898F71
:102C60009A8FAB8FBC8F698D7A8D8B8D9C8D20E078
:102C700030E04AE755E40E941F02DC01CB018D8B56
:102C80009E8BAF8BB88F6D897E898F89988D20E060
:102C900030E040E85FE30E94550488232CF481E093
:102CA00090E09C8B8B8B3FC06D897E898F89988D3E
:102CB00020E03FEF4FE757E40E94F50318164CF56C
:102CC000698D7A8D8B8D9C8D20E030E040E251E45F
:102CD0000E941F02DC01CB01BC01CD010E94490012
:102CE000DC01CB019C8B8B8B0FC080E991E09A8B30
:102CF000898B89899A890197F1F79A8B898B8B89BE
:102D00009C8901979C8B8B8B8B899C89009769F799
:102D100014C06D897E898F89988D0E944900DC01DD
:102D2000CB019C8B8B8B8B899C89988B8F878F8514
:102D300098890197F1F7988B8F8783E30E9439195F
:102D400082E30E94391988E20E9439198CE00E94BE
:102D5000391982E00E94391981E00E94391980E016
:102D600090E0A0EAB0E48B879C87AD87BE876B8537
:102D70007C858D859E8520E030E04AE755E40E9401
:102D80001F02DC01CB018F839887A987BA876F81E7
:102D9000788589859A8520E030E040E85FE30E94ED
:102DA000550488232CF481E090E09E838D833FC0FE
:102DB0006F81788589859A8520E03FEF4FE757E45A
:102DC0000E94F50318164CF56B857C858D859E85D4
:102DD00020E030E040E251E40E941F02DC01CB0120
:102DE000BC01CD010E944900DC01CB019E838D8393
:102DF0000FC080E991E09C838B838B819C8101973C
:102E0000F1F79C838B838D819E8101979E838D83B7
:102E10008D819E81009769F714C06F8178858985BF
:102E20009A850E944900DC01CB019E838D838D81B0
:102E30009E819A83898389819A810197F1F79A8388
:102E400089836C960FB6F894DEBF0FBECDBFCF91CD
:102E5000DF910895DF93CF93CDB7DEB7E9970FB633
:102E6000F894DEBF0FBECDBF89AF8BE061E00E945A
:102E70001D09ABE3B0E089AD8695982F9877EBE319
:102E8000F0E080818778892B8C938CE061E00E9450
:102E90001D0980E090E0A0E8BFE38DAB9EABAFAB37
:102EA000B8AF6DA97EA98FA998AD20E030E04AE7C0
:102EB00055E40E941F02DC01CB0189AB9AABABAB9E
:102EC000BCAB69A97AA98BA99CA920E030E040E8B5
:102ED0005FE30E94550488232CF481E090E098ABD6
:102EE0008FA73FC069A97AA98BA99CA920E03FEFD1
:102EF0004FE757E40E94F50318164CF56DA97EA91B
:102F00008FA998AD20E030E040E251E40E941F021A
:102F1000DC01CB01BC01CD010E944900DC01CB01E9
:102F200098AB8FA70FC080E991E09EA78DA78DA5D4
:102F30009EA50197F1F79EA78DA78FA598A9019748
:102F400098AB8FA78FA598A9009769F714C069A9B6
:102F50007AA98BA99CA90E944900DC01CB0198ABFE
:102F60008FA78FA598A99CA78BA78BA59CA5019738
:102F7000F1F79CA78BA78CE060E00E941D0980E020
:102F800090E0A0E8BFE38FA398A7A9A7BAA76FA175
:102F900078A589A59AA520E030E04AE755E40E948B
:102FA0001F02DC01CB018BA39CA3ADA3BEA36BA12D
:102FB0007CA18DA19EA120E030E040E85FE30E946B
:102FC000550488232CF481E090E09AA389A33FC0A4
:102FD0006BA17CA18DA19EA120E03FEF4FE757E4BC
:102FE0000E94F50318164CF56FA178A589A59AA53E
:102FF00020E030E040E251E40E941F02DC01CB01FE
:10300000BC01CD010E944900DC01CB019AA389A338
:103010000FC080E991E098A38F8F8F8D98A10197C1
:10302000F1F798A38F8F89A19AA101979AA389A3F9
:1030300089A19AA1009769F714C06BA17CA18DA109
:103040009EA10E944900DC01CB019AA389A389A11A
:103050009AA19E8F8D8F8D8D9E8D0197F1F79E8FFA
:103060008D8FABE3B0E089AD882F90E0880F991F7A
:10307000880F991F880F991F982F9877EBE3F0E03E
:1030800080818778892B8C938CE061E00E941D09F8
:1030900080E090E0A0E8BFE3898F9A8FAB8FBC8F70
:1030A000698D7A8D8B8D9C8D20E030E04AE755E468
:1030B0000E941F02DC01CB018D8B9E8BAF8BB88FE2
:1030C0006D897E898F89988D20E030E040E85FE34C
:1030D0000E94550488232CF481E090E09C8B8B8B1C
:1030E0003FC06D897E898F89988D20E03FEF4FE743
:1030F00057E40E94F50318164CF5698D7A8D8B8D77
:103100009C8D20E030E040E251E40E941F02DC018F
:10311000CB01BC01CD010E944900DC01CB019C8B9D
:103120008B8B0FC080E991E09A8B898B89899A8972
:103130000197F1F79A8B898B8B899C8901979C8BDE
:103140008B8B8B899C89009769F714C06D897E8968
:103150008F89988D0E944900DC01CB019C8B8B8B61
:103160008B899C89988B8F878F8598890197F1F738
:10317000988B8F878CE060E00E941D0980E090E0D2
:10318000A0EAB0E48B879C87AD87BE876B857C8582
:103190008D859E8520E030E04AE755E40E941F02BD
:1031A000DC01CB018F839887A987BA876F817885E7
:1031B00089859A8520E030E040E85FE30E9455046D
:1031C00088232CF481E090E09E838D833FC06F8143
:1031D000788589859A8520E03FEF4FE757E40E9484
:1031E000F50318164CF56B857C858D859E8520E052
:1031F00030E040E251E40E941F02DC01CB01BC013F
:10320000CD010E944900DC01CB019E838D830FC05C
:1032100080E991E09C838B838B819C810197F1F7FE
:103220009C838B838D819E8101979E838D838D816D
:103230009E81009769F714C06F81788589859A858A
:103240000E944900DC01CB019E838D838D819E818C
:103250009A83898389819A810197F1F79A83898377
:10326000E9960FB6F894DEBF0FBECDBFCF91DF91C8
:103270000895DF93CF93CDB7DEB7E9970FB6F894F3
:10328000DEBF0FBECDBF89AF8BE060E00E941D099D
:10329000ABE3B0E089AD8695982F9877EBE3F0E04B
:1032A00080818778892B8C938CE061E00E941D09D6
:1032B00080E090E0A0E8BFE38DAB9EABAFABB8AFD2
:1032C0006DA97EA98FA998AD20E030E04AE755E4CA
:1032D0000E941F02DC01CB0189AB9AABABABBCAB4C
:1032E00069A97AA98BA99CA920E030E040E85FE3B6
:1032F0000E94550488232CF481E090E098AB8FA7BE
:103300003FC069A97AA98BA99CA920E03FEF4FE7AC
:1033100057E40E94F50318164CF56DA97EA98FA9F4
:1033200098AD20E030E040E251E40E941F02DC0151
:10333000CB01BC01CD010E944900DC01CB0198AB5F
:103340008FA70FC080E991E09EA78DA78DA59EA5B0
:103350000197F1F79EA78DA78FA598A9019798AB24
:103360008FA78FA598A9009769F714C069A97AA9B2
:103370008BA99CA90E944900DC01CB0198AB8FA7C7
:103380008FA598A99CA78BA78BA59CA50197F1F762
:103390009CA78BA78CE060E00E941D0980E090E074
:1033A000A0E8BFE38FA398A7A9A7BAA76FA178A5A4
:1033B00089A59AA520E030E04AE755E40E941F0263
:1033C000DC01CB018BA39CA3ADA3BEA36BA17CA10D
:1033D0008DA19EA120E030E040E85FE30E9455040B
:1033E00088232CF481E090E09AA389A33FC06BA1CD
:1033F0007CA18DA19EA120E03FEF4FE757E40E9402
:10340000F50318164CF56FA178A589A59AA520E0BB
:1034100030E040E251E40E941F02DC01CB01BC011C
:10342000CD010E944900DC01CB019AA389A30FC002
:1034300080E991E098A38F8F8F8D98A10197F1F784
:1034400098A38F8F89A19AA101979AA389A389A193
:103450009AA1009769F714C06BA17CA18DA19EA1D0
:103460000E944900DC01CB019AA389A389A19AA1FA
:103470009E8F8D8F8D8D9E8D0197F1F79E8F8D8FF5
:10348000ABE3B0E089AD882F90E0880F991F880FDB
:10349000991F880F991F982F9877EBE3F0E08081B0
:1034A0008778892B8C938CE061E00E941D0980E075
:1034B00090E0A0E8BFE3898F9A8FAB8FBC8F698DB6
:1034C0007A8D8B8D9C8D20E030E04AE755E40E9498
:1034D0001F02DC01CB018D8B9E8BAF8BB88F6D896A
:1034E0007E898F89988D20E030E040E85FE30E947C
:1034F000550488232CF481E090E09C8B8B8B3FC09B
:103500006D897E898F89988D20E03FEF4FE757E4E2
:103510000E94F50318164CF5698D7A8D8B8D9C8D64
:1035200020E030E040E251E40E941F02DC01CB01C8
:10353000BC01CD010E944900DC01CB019C8B8B8B2F
:103540000FC080E991E09A8B898B89899A890197CC
:10355000F1F79A8B898B8B899C8901979C8B8B8B3C
:103560008B899C89009769F714C06D897E898F8942
:10357000988D0E944900DC01CB019C8B8B8B8B8941
:103580009C89988B8F878F8598890197F1F7988B05
:103590008F878CE060E00E941D0980E090E0A0EA47
:1035A000B0E48B879C87AD87BE876B857C858D85D6
:1035B0009E8520E030E04AE755E40E941F02DC01CE
:1035C000CB018F839887A987BA876F817885898592
:1035D0009A8520E030E040E85FE30E9455048823AC
:1035E0002CF481E090E09E838D833FC06F817885CD
:1035F00089859A8520E03FEF4FE757E40E94F50365
:1036000018164CF56B857C858D859E8520E030E015
:1036100040E251E40E941F02DC01CB01BC01CD015C
:103620000E944900DC01CB019E838D830FC080E99D
:1036300091E09C838B838B819C810197F1F79C8324
:103640008B838D819E8101979E838D838D819E8149
:10365000009769F714C06F81788589859A850E94E3
:103660004900DC01CB019E838D838D819E819A83ED
:10367000898389819A810197F1F79A838983E996F1
:103680000FB6F894DEBF0FBECDBFCF91DF91089586
:10369000DF93CF93CDB7DEB761970FB6F894DEBF57
:1036A0000FBECDBF998B888B1F860EC08F85282FAC
:1036B00030E088899989FC01E20FF31F80810E9424
:1036C0002A178F858F5F8F878F85282F30E0888915
:1036D0009989FC01E20FF31F8081882339F780E08C
:1036E00090E0A0EAB0E48B879C87AD87BE876B85AE
:1036F0007C858D859E8520E030E04AE755E40E9478
:103700001F02DC01CB018F839887A987BA876F815D
:10371000788589859A8520E030E040E85FE30E9463
:10372000550488232CF481E090E09E838D833FC074
:103730006F81788589859A8520E03FEF4FE757E4D0
:103740000E94F50318164CF56B857C858D859E854A
:1037500020E030E040E251E40E941F02DC01CB0196
:10376000BC01CD010E944900DC01CB019E838D8309
:103770000FC080E991E09C838B838B819C810197B2
:10378000F1F79C838B838D819E8101979E838D832E
:103790008D819E81009769F714C06F817885898536
:1037A0009A850E944900DC01CB019E838D838D8127
:1037B0009E819A83898389819A810197F1F79A83FF
:1037C000898361960FB6F894DEBF0FBECDBFCF914F
:1037D000DF9108950F931F93DF93CF93CDB7DEB79B
:1037E0006D970FB6F894DEBF0FBECDBF6A8F7B8F8B
:1037F0008C8F9D8F8AE0FE013B96DF01982F1D92F2
:103800009A95E9F785E0FE017596DF01982F1D92E4
:103810009A95E9F71A86198680E090E0A0E0B0E07A
:103820008D839E83AF83B88719821A821B821C8284
:103830006A8D7B8D8C8D9D8D20E030E040E050E0E6
:103840000E94C503882319F480E30E942A176A8D19
:103850007B8D8C8D9D8D20E030E040E050E00E941B
:103860005504882364F48DE20E942A178A8D9B8D6B
:10387000AC8DBD8DB0588A8F9B8FAC8FBD8F6A8DFC
:103880007B8D8C8D9D8D0E94E304DC01CB018983AF
:103890009A83AB83BC8369817A818B819C810E94EE
:1038A00085049B01AC016A8D7B8D8C8D9D8D0E9462
:1038B000C101DC01CB018D839E83AF83B8872FC00C
:1038C0008A85082F112707FD109589819A81AB8180
:1038D000BC812AE030E040E050E0BC01CD010E9414
:1038E0005225DC01CB01282FCE010B96FC01E00F05
:1038F000F11F208389819A81AB81BC812AE030E06D
:1039000040E050E0BC01CD010E945225DA01C9011E
:1039100089839A83AB83BC838A858F5F8A878981F9
:103920009A81AB81BC810097A105B10549F68A85D2
:1039300081508A8747C06D817E818F81988520E084
:1039400030E040E251E40E941F02DC01CB018D8394
:103950009E83AF83B8878985082F112707FD1095AF
:103960006D817E818F8198850E944900DC01CB01A9
:10397000282FCE014596FC01E00FF11F2083898599
:103980008F5F89876D817E818F8198850E94490034
:10399000DC01CB01882F90E0AA2797FDA095BA2FD4
:1039A000BC01CD010E9485049B01AC016D817E812B
:1039B0008F8198850E94C101DC01CB018D839E839C
:1039C000AF83B887898585300CF4B5CF8985815060
:1039D000898711C08A85282F332727FD3095CE018E
:1039E0000B96FC01E20FF31F8081805D0E942A1775
:1039F0008A8581508A878A85882364F78EE20E94AF
:103A00002A17198611C08985282F332727FD30955D
:103A1000CE014596FC01E20FF31F8081805D0E947C
:103A20002A1789858F5F89878985843064F36D962D
:103A30000FB6F894DEBF0FBECDBFCF91DF911F91BF
:103A40000F910895DF93CF9300D000D0CDB7DEB7AC
:103A50008B836C8380E8898380EC8A838B81282F19
:103A600030E0CE010196FC01E20FF31F90818C81C2
:103A7000890F0E9439190F900F900F900F90CF91DE
:103A8000DF910895DF93CF93CDB7DEB72E970FB6B2
:103A9000F894DEBF0FBECDBF81E00E94391980E0EF
:103AA00090E0A0EAB0E48B879C87AD87BE876B85EA
:103AB0007C858D859E8520E030E04AE755E40E94B4
:103AC0001F02DC01CB018F839887A987BA876F819A
:103AD000788589859A8520E030E040E85FE30E94A0
:103AE000550488232CF481E090E09E838D833FC0B1
:103AF0006F81788589859A8520E03FEF4FE757E40D
:103B00000E94F50318164CF56B857C858D859E8586
:103B100020E030E040E251E40E941F02DC01CB01D2
:103B2000BC01CD010E944900DC01CB019E838D8345
:103B30000FC080E991E09C838B838B819C810197EE
:103B4000F1F79C838B838D819E8101979E838D836A
:103B50008D819E81009769F714C06F817885898572
:103B60009A850E944900DC01CB019E838D838D8163
:103B70009E819A83898389819A810197F1F79A833B
:103B800089832E960FB6F894DEBF0FBECDBFCF91BE
:103B9000DF910895DF93CF93CDB7DEB788E161E081
:103BA0000E94070889E161E00E9407088AE161E05C
:103BB0000E9407088BE161E00E9407088AE260E04A
:103BC0000E9407088BE260E00E9407088CE260E038
:103BD0000E9407088DE260E00E94070888E161E02A
:103BE0000E941D0989E161E00E941D098AE161E0EE
:103BF0000E941D098BE161E00E941D09CF91DF91B8
:103C00000895DF93CF93CDB7DEB7A6970FB6F8949C
:103C1000DEBF0FBECDBFCE0142969BA38AA3EFE6C7
:103C2000F1E0FDA3ECA3F0E1FEA3ECA1FDA1008077
:103C30008CA19DA101969DA38CA3EAA1FBA100826A
:103C40008AA19BA101969BA38AA39EA191509EA3AA
:103C5000EEA1EE2351F7198A188A1F8688E1888B16
:103C6000B1C0888960E00E941D098AE2898B9FC0EB
:103C700089890E94BF0A882309F096C080E090E0FD
:103C8000A8ECB2E48B879C87AD87BE876B857C856B
:103C90008D859E8520E030E04AE755E40E941F02B2
:103CA000DC01CB018F839887A987BA876F817885DC
:103CB00089859A8520E030E040E85FE30E94550462
:103CC00088232CF481E090E09E838D833FC06F8138
:103CD000788589859A8520E03FEF4FE757E40E9479
:103CE000F50318164CF56B857C858D859E8520E047
:103CF00030E040E251E40E941F02DC01CB01BC0134
:103D0000CD010E944900DC01CB019E838D830FC051
:103D100080E991E09C838B838B819C810197F1F7F3
:103D20009C838B838D819E8101979E838D838D8162
:103D30009E81009769F714C06F81788589859A857F
:103D40000E944900DC01CB019E838D838D819E8181
:103D50009A83898389819A810197F1F79A8389836C
:103D600089890E94BF0A8823F9F489890E94BF0AC1
:103D70008823D9F38889882F90E09C01285130400E
:103D80008989882F90E0AC014A525040220F331F9E
:103D9000220F331FCE010196820F931F840F951FB0
:103DA000FC01719680818F8789898F5F898B8989D2
:103DB0008E3208F45DCF888961E00E941D098889F0
:103DC0008F5F888B88898C3108F44BCF8F85A696BE
:103DD0000FB6F894DEBF0FBECDBFCF91DF9108952F
:103DE000DF93CF93CDB7DEB783E261E00E9407088F
:103DF000CF91DF910895DF93CF93CDB7DEB783E204
:103E000061E00E941D09CF91DF910895DF93CF9368
:103E1000CDB7DEB783E260E00E941D09CF91DF914C
:103E20000895DF93CF93CDB7DEB72E970FB6F894F2
:103E3000DEBF0FBECDBF0E94FB1E80E090E0AAEF68
:103E4000B3E48B879C87AD87BE876B857C858D852A
:103E50009E8520E030E04AE755E40E941F02DC0125
:103E6000CB018F839887A987BA876F8178858985E9
:103E70009A8520E030E040E85FE30E945504882303
:103E80002CF481E090E09E838D833FC06F81788524
:103E900089859A8520E03FEF4FE757E40E94F503BC
:103EA00018164CF56B857C858D859E8520E030E06D
:103EB00040E251E40E941F02DC01CB01BC01CD01B4
:103EC0000E944900DC01CB019E838D830FC080E9F5
:103ED00091E09C838B838B819C810197F1F79C837C
:103EE0008B838D819E8101979E838D838D819E81A1
:103EF000009769F714C06F81788589859A850E943B
:103F00004900DC01CB019E838D838D819E819A8344
:103F1000898389819A810197F1F79A8389830E9425
:103F2000061F2E960FB6F894DEBF0FBECDBFCF9101
:103F3000DF910895DF93CF93CDB7DEB7AA970FB681
:103F4000F894DEBF0FBECDBF0E94FB1E80E090E064
:103F5000AAEFB3E48FA398A7A9A7BAA76FA178A5E2
:103F600089A59AA520E030E04AE755E40E941F02A7
:103F7000DC01CB018BA39CA3ADA3BEA36BA17CA151
:103F80008DA19EA120E030E040E85FE30E9455044F
:103F900088232CF481E090E09AA389A33FC06BA111
:103FA0007CA18DA19EA120E03FEF4FE757E40E9446
:103FB000F50318164CF56FA178A589A59AA520E000
:103FC00030E040E251E40E941F02DC01CB01BC0161
:103FD000CD010E944900DC01CB019AA389A30FC047
:103FE00080E991E098A38F8F8F8D98A10197F1F7C9
:103FF00098A38F8F89A19AA101979AA389A389A1D8
:104000009AA1009769F714C06BA17CA18DA19EA114
:104010000E944900DC01CB019AA389A389A19AA13E
:104020009E8F8D8F8D8D9E8D0197F1F79E8F8D8F39
:104030000E94061F80E090E0AAE7B3E4898F9A8F80
:10404000AB8FBC8F698D7A8D8B8D9C8D20E030E09D
:104050004AE755E40E941F02DC01CB018D8B9E8B49
:10406000AF8BB88F6D897E898F89988D20E030E085
:1040700040E85FE30E94550488232CF481E090E03F
:104080009C8B8B8B3FC06D897E898F89988D20E0BA
:104090003FEF4FE757E40E94F50318164CF5698D82
:1040A0007A8D8B8D9C8D20E030E040E251E40E94BF
:1040B0001F02DC01CB01BC01CD010E944900DC01E3
:1040C000CB019C8B8B8B0FC080E991E09A8B898B05
:1040D00089899A890197F1F79A8B898B8B899C89B9
:1040E00001979C8B8B8B8B899C89009769F714C0F7
:1040F0006D897E898F89988D0E944900DC01CB01F2
:104100009C8B8B8B8B899C89988B8F878F859889CB
:104110000197F1F7988B8F870E94FB1E80E090E05B
:10412000AAEFB3E48B879C87AD87BE876B857C85C0
:104130008D859E8520E030E04AE755E40E941F020D
:10414000DC01CB018F839887A987BA876F81788537
:1041500089859A8520E030E040E85FE30E945504BD
:1041600088232CF481E090E09E838D833FC06F8193
:10417000788589859A8520E03FEF4FE757E40E94D4
:10418000F50318164CF56B857C858D859E8520E0A2
:1041900030E040E251E40E941F02DC01CB01BC018F
:1041A000CD010E944900DC01CB019E838D830FC0AD
:1041B00080E991E09C838B838B819C810197F1F74F
:1041C0009C838B838D819E8101979E838D838D81BE
:1041D0009E81009769F714C06F81788589859A85DB
:1041E0000E944900DC01CB019E838D838D819E81DD
:1041F0009A83898389819A810197F1F79A838983C8
:104200000E94061FAA960FB6F894DEBF0FBECDBF60
:10421000CF91DF9108950F931F93DF93CF93CDB785
:10422000DEB7C654D0400FB6F894DEBF0FBECDBF88
:104230000E94FB1EFE01ED5BFF4F80E090E0AAEFC5
:10424000B3E480839183A283B3838E01015C1F4F0B
:10425000FE01ED5BFF4F608171818281938120E0DF
:1042600030E04AE755E40E941F02DC01CB01F8016F
:1042700080839183A283B383FE01FF966081718165
:104280008281938120E030E040E85FE30E945504A2
:1042900088232CF481E090E09EAF8DAF46C0FE01F4
:1042A000FF96608171818281938120E03FEF4FE72B
:1042B00057E40E94F503181664F5FE01ED5BFF4F0D
:1042C000608171818281938120E030E040E251E49D
:1042D0000E941F02DC01CB01BC01CD010E944900FC
:1042E000DC01CB019EAF8DAF0FC080E991E09CAFA8
:1042F0008BAF8BAD9CAD0197F1F79CAF8BAF8DADC4
:104300009EAD01979EAF8DAF8DAD9EAD009769F7C5
:1043100016C0FE01FF9660817181828193810E94A7
:104320004900DC01CB019EAF8DAF8DAD9EAD9AAF44
:1043300089AF89AD9AAD0197F1F79AAF89AF0E9425
:10434000061F80E090E0AAE7B3E48DAB9EABAFAB75
:10435000B8AF6DA97EA98FA998AD20E030E04AE7FB
:1043600055E40E941F02DC01CB0189AB9AABABABD9
:10437000BCAB69A97AA98BA99CA920E030E040E8F0
:104380005FE30E94550488232CF481E090E098AB11
:104390008FA73FC069A97AA98BA99CA920E03FEF0C
:1043A0004FE757E40E94F50318164CF56DA97EA956
:1043B0008FA998AD20E030E040E251E40E941F0256
:1043C000DC01CB01BC01CD010E944900DC01CB0125
:1043D00098AB8FA70FC080E991E09EA78DA78DA510
:1043E0009EA50197F1F79EA78DA78FA598A9019784
:1043F00098AB8FA78FA598A9009769F714C069A9F2
:104400007AA98BA99CA90E944900DC01CB0198AB39
:104410008FA78FA598A99CA78BA78BA59CA5019773
:10442000F1F79CA78BA70E94FB1E80E090E0AAEF0B
:10443000B3E48FA398A7A9A7BAA76FA178A589A568
:104440009AA520E030E04AE755E40E941F02DC0113
:10445000CB018BA39CA3ADA3BEA36BA17CA18DA11B
:104460009EA120E030E040E85FE30E9455048823ED
:104470002CF481E090E09AA389A33FC06BA17CA1BA
:104480008DA19EA120E03FEF4FE757E40E94F50386
:1044900018164CF56FA178A589A59AA520E030E003
:1044A00040E251E40E941F02DC01CB01BC01CD01BE
:1044B0000E944900DC01CB019AA389A30FC080E9C7
:1044C00091E098A38F8F8F8D98A10197F1F798A312
:1044D0008F8F89A19AA101979AA389A389A19AA1F3
:1044E000009769F714C06BA17CA18DA19EA10E94C9
:1044F0004900DC01CB019AA389A389A19AA19E8FCF
:104500008D8F8D8D9E8D0197F1F79E8F8D8F0E94DF
:10451000061F80E090E0AAE7B3E4898F9A8FAB8F03
:10452000BC8F698D7A8D8B8D9C8D20E030E04AE7C1
:1045300055E40E941F02DC01CB018D8B9E8BAF8B5B
:10454000B88F6D897E898F89988D20E030E040E8B2
:104550005FE30E94550488232CF481E090E09C8B5B
:104560008B8B3FC06D897E898F89988D20E03FEFCE
:104570004FE757E40E94F50318164CF5698D7A8DC4
:104580008B8D9C8D20E030E040E251E40E941F02C0
:10459000DC01CB01BC01CD010E944900DC01CB0153
:1045A0009C8B8B8B0FC080E991E09A8B898B8989DA
:1045B0009A890197F1F79A8B898B8B899C8901974E
:1045C0009C8B8B8B8B899C89009769F714C06D89B4
:1045D0007E898F89988D0E944900DC01CB019C8BDC
:1045E0008B8B8B899C89988B8F878F859889019776
:1045F000F1F7988B8F870E94FB1E80E090E0AAEF76
:10460000B3E48B879C87AD87BE876B857C858D8562
:104610009E8520E030E04AE755E40E941F02DC015D
:10462000CB018F839887A987BA876F817885898521
:104630009A8520E030E040E85FE30E94550488233B
:104640002CF481E090E09E838D833FC06F8178855C
:1046500089859A8520E03FEF4FE757E40E94F503F4
:1046600018164CF56B857C858D859E8520E030E0A5
:1046700040E251E40E941F02DC01CB01BC01CD01EC
:104680000E944900DC01CB019E838D830FC080E92D
:1046900091E09C838B838B819C810197F1F79C83B4
:1046A0008B838D819E8101979E838D838D819E81D9
:1046B000009769F714C06F81788589859A850E9473
:1046C0004900DC01CB019E838D838D819E819A837D
:1046D000898389819A810197F1F79A8389830E945E
:1046E000061FCA5BDF4F0FB6F894DEBF0FBECDBF0B
:1046F000CF91DF911F910F910895DF93CF93CDB7A5
:10470000DEB72E970FB6F894DEBF0FBECDBF0E9466
:10471000FB1E80E090E4ACE9B5E48B879C87AD8715
:10472000BE876B857C858D859E8520E030E04AE7DD
:1047300055E40E941F02DC01CB018F839887A98773
:10474000BA876F81788589859A8520E030E040E8D6
:104750005FE30E94550488232CF481E090E09E835F
:104760008D833FC06F81788589859A8520E03FEFF2
:104770004FE757E40E94F50318164CF56B857C85CE
:104780008D859E8520E030E040E251E40E941F02CA
:10479000DC01CB01BC01CD010E944900DC01CB0151
:1047A0009E838D830FC080E991E09C838B838B81F6
:1047B0009C810197F1F79C838B838D819E8101976A
:1047C0009E838D838D819E81009769F714C06F81D0
:1047D000788589859A850E944900DC01CB019E83FA
:1047E0008D838D819E819A83898389819A810197A6
:1047F000F1F79A8389830E94061F2E960FB6F894CC
:10480000DEBF0FBECDBFCF91DF910895DF93CF9371
:10481000CDB7DEB762970FB6F894DEBF0FBECDBF3F
:104820000E94460B0E94091680E090E0A0E0B0E0F4
:104830008F87988BA98BBA8B0E94A80BCC01A0E024
:10484000B0E0BC01CD010E943705DC01CB018F87B0
:10485000988BA98BBA8B80E690E00E94481B6F85ED
:10486000788989899A8920E030E040E850E40E9404
:104870001903DC01CB01BC01CD010E94EA1B83E4DA
:104880000E942A1780E090E0AAE7B4E48B879C8717
:10489000AD87BE876B857C858D859E8520E030E069
:1048A0004AE755E40E941F02DC01CB018F83988701
:1048B000A987BA876F81788589859A8520E030E05D
:1048C00040E85FE30E94550488232CF481E090E0E7
:1048D0009E838D833FC06F81788589859A8520E08E
:1048E0003FEF4FE757E40E94F50318164CF56B8530
:1048F0007C858D859E8520E030E040E251E40E9479
:104900001F02DC01CB01BC01CD010E944900DC018A
:10491000CB019E838D830FC080E991E09C838B83C4
:104920008B819C810197F1F79C838B838D819E8184
:1049300001979E838D838D819E81009769F714C0B6
:104940006F81788589859A850E944900DC01CB01B9
:104950009E838D838D819E819A83898389819A81AB
:104960000197F1F79A8389830E94421D65CFDF93F7
:10497000CF93CDB7DEB72E970FB6F894DEBF0FBE3C
:10498000CDBF81E00E9481140E94FB1E80E090E078
:10499000AAE7B4E48B879C87AD87BE876B857C854F
:1049A0008D859E8520E030E04AE755E40E941F0295
:1049B000DC01CB018F839887A987BA876F817885BF
:1049C00089859A8520E030E040E85FE30E94550445
:1049D00088232CF481E090E09E838D833FC06F811B
:1049E000788589859A8520E03FEF4FE757E40E945C
:1049F000F50318164CF56B857C858D859E8520E02A
:104A000030E040E251E40E941F02DC01CB01BC0116
:104A1000CD010E944900DC01CB019E838D830FC034
:104A200080E991E09C838B838B819C810197F1F7D6
:104A30009C838B838D819E8101979E838D838D8145
:104A40009E81009769F714C06F81788589859A8562
:104A50000E944900DC01CB019E838D838D819E8164
:104A60009A83898389819A810197F1F79A8389834F
:104A700081E00E94B0140E94061F2E960FB6F89493
:104A8000DEBF0FBECDBFCF91DF910895991B79E0B6
:104A900004C0991F961708F0961B881F7A95C9F7CE
:104AA0008095089597FB092E05260ED057FD04D05A
:104AB00014D00AD0001C38F45095409530952195BB
:104AC0003F4F4F4F5F4F0895F6F790958095709543
:104AD00061957F4F8F4F9F4F0895A1E21A2EAA1B19
:104AE000BB1BFD010DC0AA1FBB1FEE1FFF1FA2179E
:104AF000B307E407F50720F0A21BB30BE40BF50B9B
:104B0000661F771F881F991F1A9469F76095709523
:104B1000809590959B01AC01BD01CF0108952F9226
:104B20003F924F925F926F927F928F929F92AF923D
:104B3000BF92CF92DF92EF92FF920F931F93CF938A
:104B4000DF93CDB7DEB7CA1BDB0B0FB6F894DEBF21
:104B50000FBECDBF09942A88398848885F846E8447
:104B60007D848C849B84AA84B984C884DF80EE8091
:104B7000FD800C811B81AA81B981CE0FD11D0FB69A
:104B8000F894DEBF0FBECDBFED010895F894FFCFBE
:104B900054656D70203D0000000000000000000022
:104BA00001020203030303040404040404040405CF
:104BB00005050505050505050505050505050506A4
:104BC0000606060606060606060606060606060685
:104BD0000606060606060606060606060606060774
:104BE0000707070707070707070707070707070755
:104BF0000707070707070707070707070707070745
:104C00000707070707070707070707070707070734
:104C10000707070707070707070707070707070823
:104C20000808080808080808080808080808080804
:104C300008080808080808080808080808080808F4
:104C400008080808080808080808080808080808E4
:104C500008080808080808080808080808080808D4
:104C600008080808080808080808080808080808C4
:104C700008080808080808080808080808080808B4
:104C800008080808080808080808080808080808A4
:104C9000080808080808080808080808080808316B
:104CA00032332B3435362D3738392A2E303D2F000C
:00000001FF
